{
  "contractName": "WRFContract",
  "abi": [
    {
      "inputs": [],
      "stateMutability": "nonpayable",
      "type": "constructor"
    },
    {
      "anonymous": false,
      "inputs": [
        {
          "indexed": false,
          "internalType": "uint256",
          "name": "id",
          "type": "uint256"
        },
        {
          "indexed": false,
          "internalType": "string",
          "name": "latLon",
          "type": "string"
        },
        {
          "indexed": false,
          "internalType": "uint256[]",
          "name": "temperaturas",
          "type": "uint256[]"
        },
        {
          "indexed": false,
          "internalType": "uint256[]",
          "name": "fechaHoras",
          "type": "uint256[]"
        }
      ],
      "name": "SubidaDatos",
      "type": "event"
    },
    {
      "inputs": [
        {
          "internalType": "uint256",
          "name": "",
          "type": "uint256"
        }
      ],
      "name": "Datos",
      "outputs": [
        {
          "internalType": "uint256",
          "name": "id",
          "type": "uint256"
        },
        {
          "internalType": "string",
          "name": "latLon",
          "type": "string"
        }
      ],
      "stateMutability": "view",
      "type": "function",
      "constant": true
    },
    {
      "inputs": [],
      "name": "contador",
      "outputs": [
        {
          "internalType": "uint256",
          "name": "",
          "type": "uint256"
        }
      ],
      "stateMutability": "view",
      "type": "function",
      "constant": true
    },
    {
      "inputs": [
        {
          "internalType": "string",
          "name": "_latLon",
          "type": "string"
        },
        {
          "internalType": "uint256[]",
          "name": "_temperaturas",
          "type": "uint256[]"
        },
        {
          "internalType": "uint256[]",
          "name": "_fechaHoras",
          "type": "uint256[]"
        }
      ],
      "name": "crearDatos",
      "outputs": [],
      "stateMutability": "nonpayable",
      "type": "function"
    },
    {
      "inputs": [],
      "name": "eliminarDatos",
      "outputs": [],
      "stateMutability": "nonpayable",
      "type": "function"
    },
    {
      "inputs": [
        {
          "internalType": "uint256",
          "name": "id",
          "type": "uint256"
        },
        {
          "internalType": "uint256",
          "name": "i",
          "type": "uint256"
        }
      ],
      "name": "getTemperatura",
      "outputs": [
        {
          "internalType": "uint256",
          "name": "",
          "type": "uint256"
        }
      ],
      "stateMutability": "view",
      "type": "function",
      "constant": true
    },
    {
      "inputs": [
        {
          "internalType": "uint256",
          "name": "id",
          "type": "uint256"
        },
        {
          "internalType": "uint256",
          "name": "i",
          "type": "uint256"
        }
      ],
      "name": "getFechaHora",
      "outputs": [
        {
          "internalType": "uint256",
          "name": "",
          "type": "uint256"
        }
      ],
      "stateMutability": "view",
      "type": "function",
      "constant": true
    }
  ],
  "bytecode": "0x60806040526000805534801561001457600080fd5b50610bc2806100246000396000f3fe608060405234801561001057600080fd5b50600436106100625760003560e01c806313eb1aac146100675780633f29ea8a146100715780634a405143146100a157806353d27cc2146100d2578063565aa64c146100f0578063b614310f14610120575b600080fd5b61006f61013c565b005b61008b6004803603810190610086919061056a565b6101ad565b60405161009891906105b9565b60405180910390f35b6100bb60048036038101906100b691906105d4565b6101ea565b6040516100c992919061069a565b60405180910390f35b6100da610296565b6040516100e791906105b9565b60405180910390f35b61010a6004803603810190610105919061056a565b61029c565b60405161011791906105b9565b60405180910390f35b61013a600480360381019061013591906108c7565b6102d9565b005b60005b6000548110156101aa576001600082815260200190815260200160002060008082016000905560018201600061017591906103cf565b600282016000610185919061040f565b600382016000610195919061040f565b505080806101a29061099d565b91505061013f565b50565b60006001600084815260200190815260200160002060030182815481106101d7576101d66109e5565b5b9060005260206000200154905092915050565b600160205280600052604060002060009150905080600001549080600101805461021390610a43565b80601f016020809104026020016040519081016040528092919081815260200182805461023f90610a43565b801561028c5780601f106102615761010080835404028352916020019161028c565b820191906000526020600020905b81548152906001019060200180831161026f57829003601f168201915b5050505050905082565b60005481565b60006001600084815260200190815260200160002060020182815481106102c6576102c56109e5565b5b9060005260206000200154905092915050565b60405180608001604052806000548152602001848152602001838152602001828152506001600080548152602001908152602001600020600082015181600001556020820151816001019080519060200190610336929190610430565b5060408201518160020190805190602001906103539291906104b6565b5060608201518160030190805190602001906103709291906104b6565b509050507fd0a747632089e786f7318fe897444094a07eedbbcebd8ea3f6d82f6f8df41cf16000548484846040516103ab9493929190610b32565b60405180910390a16000808154809291906103c59061099d565b9190505550505050565b5080546103db90610a43565b6000825580601f106103ed575061040c565b601f01602090049060005260206000209081019061040b9190610503565b5b50565b508054600082559060005260206000209081019061042d9190610503565b50565b82805461043c90610a43565b90600052602060002090601f01602090048101928261045e57600085556104a5565b82601f1061047757805160ff19168380011785556104a5565b828001600101855582156104a5579182015b828111156104a4578251825591602001919060010190610489565b5b5090506104b29190610503565b5090565b8280548282559060005260206000209081019282156104f2579160200282015b828111156104f15782518255916020019190600101906104d6565b5b5090506104ff9190610503565b5090565b5b8082111561051c576000816000905550600101610504565b5090565b6000604051905090565b600080fd5b600080fd5b6000819050919050565b61054781610534565b811461055257600080fd5b50565b6000813590506105648161053e565b92915050565b600080604083850312156105815761058061052a565b5b600061058f85828601610555565b92505060206105a085828601610555565b9150509250929050565b6105b381610534565b82525050565b60006020820190506105ce60008301846105aa565b92915050565b6000602082840312156105ea576105e961052a565b5b60006105f884828501610555565b91505092915050565b600081519050919050565b600082825260208201905092915050565b60005b8381101561063b578082015181840152602081019050610620565b8381111561064a576000848401525b50505050565b6000601f19601f8301169050919050565b600061066c82610601565b610676818561060c565b935061068681856020860161061d565b61068f81610650565b840191505092915050565b60006040820190506106af60008301856105aa565b81810360208301526106c18184610661565b90509392505050565b600080fd5b600080fd5b7f4e487b7100000000000000000000000000000000000000000000000000000000600052604160045260246000fd5b61070c82610650565b810181811067ffffffffffffffff8211171561072b5761072a6106d4565b5b80604052505050565b600061073e610520565b905061074a8282610703565b919050565b600067ffffffffffffffff82111561076a576107696106d4565b5b61077382610650565b9050602081019050919050565b82818337600083830152505050565b60006107a261079d8461074f565b610734565b9050828152602081018484840111156107be576107bd6106cf565b5b6107c9848285610780565b509392505050565b600082601f8301126107e6576107e56106ca565b5b81356107f684826020860161078f565b91505092915050565b600067ffffffffffffffff82111561081a576108196106d4565b5b602082029050602081019050919050565b600080fd5b600061084361083e846107ff565b610734565b905080838252602082019050602084028301858111156108665761086561082b565b5b835b8181101561088f578061087b8882610555565b845260208401935050602081019050610868565b5050509392505050565b600082601f8301126108ae576108ad6106ca565b5b81356108be848260208601610830565b91505092915050565b6000806000606084860312156108e0576108df61052a565b5b600084013567ffffffffffffffff8111156108fe576108fd61052f565b5b61090a868287016107d1565b935050602084013567ffffffffffffffff81111561092b5761092a61052f565b5b61093786828701610899565b925050604084013567ffffffffffffffff8111156109585761095761052f565b5b61096486828701610899565b9150509250925092565b7f4e487b7100000000000000000000000000000000000000000000000000000000600052601160045260246000fd5b60006109a882610534565b91507fffffffffffffffffffffffffffffffffffffffffffffffffffffffffffffffff82036109da576109d961096e565b5b600182019050919050565b7f4e487b7100000000000000000000000000000000000000000000000000000000600052603260045260246000fd5b7f4e487b7100000000000000000000000000000000000000000000000000000000600052602260045260246000fd5b60006002820490506001821680610a5b57607f821691505b602082108103610a6e57610a6d610a14565b5b50919050565b600081519050919050565b600082825260208201905092915050565b6000819050602082019050919050565b610aa981610534565b82525050565b6000610abb8383610aa0565b60208301905092915050565b6000602082019050919050565b6000610adf82610a74565b610ae98185610a7f565b9350610af483610a90565b8060005b83811015610b25578151610b0c8882610aaf565b9750610b1783610ac7565b925050600181019050610af8565b5085935050505092915050565b6000608082019050610b4760008301876105aa565b8181036020830152610b598186610661565b90508181036040830152610b6d8185610ad4565b90508181036060830152610b818184610ad4565b90509594505050505056fea2646970667358221220f8e192d1110affb76c3dc1558cfab5f563fed69cba1326c9544284207e9ad20d64736f6c634300080d0033",
  "immutableReferences": {},
  "source": "// SPDX-License-Identifier: MIT\r\npragma solidity ^0.8.6;\r\n\r\ncontract WRFContract {\r\n\r\n    uint256 public contador=0;\r\n\r\n    struct fDatos {\r\n        uint256 id;\r\n        string latLon;\r\n        uint256[] temperaturas;\r\n        uint256[] fechaHoras;\r\n\r\n    }\r\n\r\n    event SubidaDatos(\r\n        uint256 id,\r\n        string latLon,\r\n        uint256[] temperaturas,\r\n        uint256[] fechaHoras\r\n    );\r\n\r\n    constructor() {\r\n        \r\n    }\r\n\r\n    mapping (uint256 => fDatos) public Datos;\r\n\r\n    function crearDatos(string memory _latLon, uint256[] memory _temperaturas, uint256[] memory _fechaHoras) public{\r\n\r\n        Datos[contador]= fDatos(contador, _latLon, _temperaturas, _fechaHoras);\r\n        emit SubidaDatos(contador, _latLon, _temperaturas, _fechaHoras);\r\n        contador++;\r\n        /*\r\n\r\n        temperaturas[contador]= Datos(latLon, _latitud, _longitud, _temperatura);\r\n        emit DatosSubidos(contador+1, block.timestamp, _latitud, _longitud, _temperatura);\r\n        contador++;*/\r\n    }\r\n\r\n    function eliminarDatos() public{\r\n        for (uint256 i = 0; i < contador; i++) {\r\n            delete Datos[i];\r\n        }\r\n    }\r\n    \r\n    function getTemperatura(uint256 id, uint i) public view returns(uint256){     \r\n        return Datos[id].temperaturas[i];\r\n    }\r\n\r\n    function getFechaHora(uint256 id, uint i) public view returns(uint256){     \r\n        return Datos[id].fechaHoras[i];\r\n    }\r\n\r\n}",
  "sourcePath": "C:\\Users\\Usuario\\Desktop\\WRF\\contracts\\WRFContract.sol",
  "compiler": {
    "name": "solc",
    "version": "0.8.13+commit.abaa5c0e.Emscripten.clang"
  },
  "schemaVersion": "3.4.7",
  "updatedAt": "2022-06-13T22:21:37.226Z",
  "networkType": "ethereum",
  "devdoc": {
    "kind": "dev",
    "methods": {},
    "version": 1
  },
  "userdoc": {
    "kind": "user",
    "methods": {},
    "version": 1
  }
}