{
  "contractName": "WRFContract",
  "abi": [
    {
      "inputs": [],
      "stateMutability": "nonpayable",
      "type": "constructor"
    },
    {
      "anonymous": false,
      "inputs": [
        {
          "indexed": false,
          "internalType": "uint256",
          "name": "id",
          "type": "uint256"
        },
        {
          "indexed": false,
          "internalType": "uint256",
          "name": "fechaHora",
          "type": "uint256"
        },
        {
          "indexed": false,
          "internalType": "int256",
          "name": "latitud",
          "type": "int256"
        },
        {
          "indexed": false,
          "internalType": "int256",
          "name": "longitud",
          "type": "int256"
        },
        {
          "indexed": false,
          "internalType": "int256",
          "name": "temperatura",
          "type": "int256"
        }
      ],
      "name": "DatosSubidos",
      "type": "event"
    },
    {
      "inputs": [],
      "name": "contador",
      "outputs": [
        {
          "internalType": "uint256",
          "name": "",
          "type": "uint256"
        }
      ],
      "stateMutability": "view",
      "type": "function"
    },
    {
      "inputs": [
        {
          "internalType": "uint256",
          "name": "",
          "type": "uint256"
        }
      ],
      "name": "temperaturas",
      "outputs": [
        {
          "internalType": "uint256",
          "name": "id",
          "type": "uint256"
        },
        {
          "internalType": "uint256",
          "name": "fechaHora",
          "type": "uint256"
        },
        {
          "internalType": "int256",
          "name": "latitud",
          "type": "int256"
        },
        {
          "internalType": "int256",
          "name": "longitud",
          "type": "int256"
        },
        {
          "internalType": "int256",
          "name": "temperatura",
          "type": "int256"
        }
      ],
      "stateMutability": "view",
      "type": "function"
    },
    {
      "inputs": [
        {
          "internalType": "int256",
          "name": "_latitud",
          "type": "int256"
        },
        {
          "internalType": "int256",
          "name": "_longitud",
          "type": "int256"
        },
        {
          "internalType": "int256",
          "name": "_temperatura",
          "type": "int256"
        }
      ],
      "name": "crearDatos",
      "outputs": [],
      "stateMutability": "nonpayable",
      "type": "function"
    }
  ],
  "bytecode": "0x60806040526000805534801561001457600080fd5b5061002960076008600961002e60201b60201c565b61025b565b6040518060a00160405280600054815260200142815260200184815260200183815260200182815250600160008054815260200190815260200160002060008201518160000155602082015181600101556040820151816002015560608201518160030155608082015181600401559050507f83d29bb4a6ae26ce035db28692585a158b7c4232ecb53c4ab5c65dd54ac6943a60016000546100d09190610142565b428585856040516100e59594939291906101c0565b60405180910390a16000808154809291906100ff90610213565b9190505550505050565b6000819050919050565b7f4e487b7100000000000000000000000000000000000000000000000000000000600052601160045260246000fd5b600061014d82610109565b915061015883610109565b9250827fffffffffffffffffffffffffffffffffffffffffffffffffffffffffffffffff0382111561018d5761018c610113565b5b828201905092915050565b6101a181610109565b82525050565b6000819050919050565b6101ba816101a7565b82525050565b600060a0820190506101d56000830188610198565b6101e26020830187610198565b6101ef60408301866101b1565b6101fc60608301856101b1565b61020960808301846101b1565b9695505050505050565b600061021e82610109565b91507fffffffffffffffffffffffffffffffffffffffffffffffffffffffffffffffff82036102505761024f610113565b5b600182019050919050565b61044b8061026a6000396000f3fe608060405234801561001057600080fd5b50600436106100415760003560e01c806353d27cc214610046578063b5f307fb14610064578063f42faa8914610080575b600080fd5b61004e6100b4565b60405161005b91906101e4565b60405180910390f35b61007e6004803603810190610079919061023a565b6100ba565b005b61009a600480360381019061009591906102b9565b610195565b6040516100ab9594939291906102f5565b60405180910390f35b60005481565b6040518060a00160405280600054815260200142815260200184815260200183815260200182815250600160008054815260200190815260200160002060008201518160000155602082015181600101556040820151816002015560608201518160030155608082015181600401559050507f83d29bb4a6ae26ce035db28692585a158b7c4232ecb53c4ab5c65dd54ac6943a600160005461015c9190610377565b428585856040516101719594939291906102f5565b60405180910390a160008081548092919061018b906103cd565b9190505550505050565b60016020528060005260406000206000915090508060000154908060010154908060020154908060030154908060040154905085565b6000819050919050565b6101de816101cb565b82525050565b60006020820190506101f960008301846101d5565b92915050565b600080fd5b6000819050919050565b61021781610204565b811461022257600080fd5b50565b6000813590506102348161020e565b92915050565b600080600060608486031215610253576102526101ff565b5b600061026186828701610225565b935050602061027286828701610225565b925050604061028386828701610225565b9150509250925092565b610296816101cb565b81146102a157600080fd5b50565b6000813590506102b38161028d565b92915050565b6000602082840312156102cf576102ce6101ff565b5b60006102dd848285016102a4565b91505092915050565b6102ef81610204565b82525050565b600060a08201905061030a60008301886101d5565b61031760208301876101d5565b61032460408301866102e6565b61033160608301856102e6565b61033e60808301846102e6565b9695505050505050565b7f4e487b7100000000000000000000000000000000000000000000000000000000600052601160045260246000fd5b6000610382826101cb565b915061038d836101cb565b9250827fffffffffffffffffffffffffffffffffffffffffffffffffffffffffffffffff038211156103c2576103c1610348565b5b828201905092915050565b60006103d8826101cb565b91507fffffffffffffffffffffffffffffffffffffffffffffffffffffffffffffffff820361040a57610409610348565b5b60018201905091905056fea26469706673582212201116df3aa2e419c34a2d004bdf15f7b96310baa5bbf6da510b502834a6358c3b64736f6c634300080d0033",
  "immutableReferences": {},
  "source": "// SPDX-License-Identifier: MIT\r\npragma solidity ^0.8.6;\r\n\r\ncontract WRFContract {\r\n\r\n    uint256 public contador=0;\r\n\r\n    struct Datos {\r\n        uint256 id;\r\n        uint256 fechaHora;\r\n        int latitud;\r\n        int longitud;\r\n        int temperatura;\r\n        \r\n    }\r\n\r\n    event DatosSubidos(\r\n        uint256 id,\r\n        uint256 fechaHora,\r\n        int latitud,\r\n        int longitud,\r\n        int temperatura\r\n    );\r\n\r\n    constructor() {\r\n        crearDatos(7, 8, 9);\r\n    }\r\n\r\n    mapping (uint256 => Datos) public temperaturas;\r\n\r\n    function crearDatos(int _latitud, int _longitud, int _temperatura) public{\r\n        temperaturas[contador]= Datos(contador, block.timestamp, _latitud, _longitud, _temperatura);\r\n        emit DatosSubidos(contador+1, block.timestamp, _latitud, _longitud, _temperatura);\r\n        contador++;\r\n    }\r\n    \r\n}",
  "sourcePath": "C:\\Users\\Usuario\\Desktop\\WRF\\contracts\\WRFContract.sol",
  "compiler": {
    "name": "solc",
    "version": "0.8.13+commit.abaa5c0e.Emscripten.clang"
  },
  "schemaVersion": "3.4.7",
  "updatedAt": "2022-05-05T20:30:40.141Z",
  "devdoc": {
    "kind": "dev",
    "methods": {},
    "version": 1
  },
  "userdoc": {
    "kind": "user",
    "methods": {},
    "version": 1
  }
}