{
  "contractName": "WRFContract",
  "abi": [
    {
      "inputs": [],
      "stateMutability": "nonpayable",
      "type": "constructor"
    },
    {
      "anonymous": false,
      "inputs": [
        {
          "indexed": false,
          "internalType": "uint256",
          "name": "id",
          "type": "uint256"
        },
        {
          "indexed": false,
          "internalType": "string",
          "name": "latLon",
          "type": "string"
        },
        {
          "indexed": false,
          "internalType": "uint256[]",
          "name": "temperaturas",
          "type": "uint256[]"
        },
        {
          "indexed": false,
          "internalType": "uint256[]",
          "name": "fechaHoras",
          "type": "uint256[]"
        }
      ],
      "name": "SubidaDatos",
      "type": "event"
    },
    {
      "inputs": [
        {
          "internalType": "uint256",
          "name": "",
          "type": "uint256"
        }
      ],
      "name": "Datos",
      "outputs": [
        {
          "internalType": "uint256",
          "name": "id",
          "type": "uint256"
        },
        {
          "internalType": "string",
          "name": "latLon",
          "type": "string"
        }
      ],
      "stateMutability": "view",
      "type": "function",
      "constant": true
    },
    {
      "inputs": [],
      "name": "contador",
      "outputs": [
        {
          "internalType": "uint256",
          "name": "",
          "type": "uint256"
        }
      ],
      "stateMutability": "view",
      "type": "function",
      "constant": true
    },
    {
      "inputs": [
        {
          "internalType": "string",
          "name": "_latLon",
          "type": "string"
        },
        {
          "internalType": "uint256[]",
          "name": "_temperaturas",
          "type": "uint256[]"
        },
        {
          "internalType": "uint256[]",
          "name": "_fechaHoras",
          "type": "uint256[]"
        }
      ],
      "name": "crearDatos",
      "outputs": [],
      "stateMutability": "nonpayable",
      "type": "function"
    },
    {
      "inputs": [
        {
          "internalType": "uint256",
          "name": "id",
          "type": "uint256"
        },
        {
          "internalType": "uint256",
          "name": "i",
          "type": "uint256"
        }
      ],
      "name": "getTemperatura",
      "outputs": [
        {
          "internalType": "uint256",
          "name": "",
          "type": "uint256"
        }
      ],
      "stateMutability": "view",
      "type": "function",
      "constant": true
    },
    {
      "inputs": [
        {
          "internalType": "uint256",
          "name": "id",
          "type": "uint256"
        },
        {
          "internalType": "uint256",
          "name": "i",
          "type": "uint256"
        }
      ],
      "name": "getFechaHora",
      "outputs": [
        {
          "internalType": "uint256",
          "name": "",
          "type": "uint256"
        }
      ],
      "stateMutability": "view",
      "type": "function",
      "constant": true
    }
  ],
  "bytecode": "0x60806040526000805534801561001457600080fd5b50610adb806100246000396000f3fe608060405234801561001057600080fd5b50600436106100575760003560e01c80633f29ea8a1461005c5780634a4051431461008c57806353d27cc2146100bd578063565aa64c146100db578063b614310f1461010b575b600080fd5b61007660048036038101906100719190610483565b610127565b60405161008391906104d2565b60405180910390f35b6100a660048036038101906100a191906104ed565b610164565b6040516100b49291906105b3565b60405180910390f35b6100c5610210565b6040516100d291906104d2565b60405180910390f35b6100f560048036038101906100f09190610483565b610216565b60405161010291906104d2565b60405180910390f35b610125600480360381019061012091906107e0565b610253565b005b600060016000848152602001908152602001600020600301828154811061015157610150610887565b5b9060005260206000200154905092915050565b600160205280600052604060002060009150905080600001549080600101805461018d906108e5565b80601f01602080910402602001604051908101604052809291908181526020018280546101b9906108e5565b80156102065780601f106101db57610100808354040283529160200191610206565b820191906000526020600020905b8154815290600101906020018083116101e957829003601f168201915b5050505050905082565b60005481565b60006001600084815260200190815260200160002060020182815481106102405761023f610887565b5b9060005260206000200154905092915050565b604051806080016040528060005481526020018481526020018381526020018281525060016000805481526020019081526020016000206000820151816000015560208201518160010190805190602001906102b0929190610349565b5060408201518160020190805190602001906102cd9291906103cf565b5060608201518160030190805190602001906102ea9291906103cf565b509050507fd0a747632089e786f7318fe897444094a07eedbbcebd8ea3f6d82f6f8df41cf160005484848460405161032594939291906109d4565b60405180910390a160008081548092919061033f90610a5d565b9190505550505050565b828054610355906108e5565b90600052602060002090601f01602090048101928261037757600085556103be565b82601f1061039057805160ff19168380011785556103be565b828001600101855582156103be579182015b828111156103bd5782518255916020019190600101906103a2565b5b5090506103cb919061041c565b5090565b82805482825590600052602060002090810192821561040b579160200282015b8281111561040a5782518255916020019190600101906103ef565b5b509050610418919061041c565b5090565b5b8082111561043557600081600090555060010161041d565b5090565b6000604051905090565b600080fd5b600080fd5b6000819050919050565b6104608161044d565b811461046b57600080fd5b50565b60008135905061047d81610457565b92915050565b6000806040838503121561049a57610499610443565b5b60006104a88582860161046e565b92505060206104b98582860161046e565b9150509250929050565b6104cc8161044d565b82525050565b60006020820190506104e760008301846104c3565b92915050565b60006020828403121561050357610502610443565b5b60006105118482850161046e565b91505092915050565b600081519050919050565b600082825260208201905092915050565b60005b83811015610554578082015181840152602081019050610539565b83811115610563576000848401525b50505050565b6000601f19601f8301169050919050565b60006105858261051a565b61058f8185610525565b935061059f818560208601610536565b6105a881610569565b840191505092915050565b60006040820190506105c860008301856104c3565b81810360208301526105da818461057a565b90509392505050565b600080fd5b600080fd5b7f4e487b7100000000000000000000000000000000000000000000000000000000600052604160045260246000fd5b61062582610569565b810181811067ffffffffffffffff82111715610644576106436105ed565b5b80604052505050565b6000610657610439565b9050610663828261061c565b919050565b600067ffffffffffffffff821115610683576106826105ed565b5b61068c82610569565b9050602081019050919050565b82818337600083830152505050565b60006106bb6106b684610668565b61064d565b9050828152602081018484840111156106d7576106d66105e8565b5b6106e2848285610699565b509392505050565b600082601f8301126106ff576106fe6105e3565b5b813561070f8482602086016106a8565b91505092915050565b600067ffffffffffffffff821115610733576107326105ed565b5b602082029050602081019050919050565b600080fd5b600061075c61075784610718565b61064d565b9050808382526020820190506020840283018581111561077f5761077e610744565b5b835b818110156107a85780610794888261046e565b845260208401935050602081019050610781565b5050509392505050565b600082601f8301126107c7576107c66105e3565b5b81356107d7848260208601610749565b91505092915050565b6000806000606084860312156107f9576107f8610443565b5b600084013567ffffffffffffffff81111561081757610816610448565b5b610823868287016106ea565b935050602084013567ffffffffffffffff81111561084457610843610448565b5b610850868287016107b2565b925050604084013567ffffffffffffffff81111561087157610870610448565b5b61087d868287016107b2565b9150509250925092565b7f4e487b7100000000000000000000000000000000000000000000000000000000600052603260045260246000fd5b7f4e487b7100000000000000000000000000000000000000000000000000000000600052602260045260246000fd5b600060028204905060018216806108fd57607f821691505b6020821081036109105761090f6108b6565b5b50919050565b600081519050919050565b600082825260208201905092915050565b6000819050602082019050919050565b61094b8161044d565b82525050565b600061095d8383610942565b60208301905092915050565b6000602082019050919050565b600061098182610916565b61098b8185610921565b935061099683610932565b8060005b838110156109c75781516109ae8882610951565b97506109b983610969565b92505060018101905061099a565b5085935050505092915050565b60006080820190506109e960008301876104c3565b81810360208301526109fb818661057a565b90508181036040830152610a0f8185610976565b90508181036060830152610a238184610976565b905095945050505050565b7f4e487b7100000000000000000000000000000000000000000000000000000000600052601160045260246000fd5b6000610a688261044d565b91507fffffffffffffffffffffffffffffffffffffffffffffffffffffffffffffffff8203610a9a57610a99610a2e565b5b60018201905091905056fea2646970667358221220a41a03ed3a1f4df6f3a1ae22ec8401b260e498ecaefb7f872d65fe5d0dc3171f64736f6c634300080d0033",
  "immutableReferences": {},
  "source": "// SPDX-License-Identifier: MIT\r\npragma solidity ^0.8.6;\r\n\r\ncontract WRFContract {\r\n\r\n    uint256 public contador=0;\r\n\r\n    struct fDatos {\r\n        uint256 id;\r\n        string latLon;\r\n        uint256[] temperaturas;\r\n        uint256[] fechaHoras;\r\n\r\n    }\r\n\r\n    event SubidaDatos(\r\n        uint256 id,\r\n        string latLon,\r\n        uint256[] temperaturas,\r\n        uint256[] fechaHoras\r\n    );\r\n\r\n    constructor() {\r\n        \r\n    }\r\n\r\n    mapping (uint256 => fDatos) public Datos;\r\n\r\n    function crearDatos(string memory _latLon, uint256[] memory _temperaturas, uint256[] memory _fechaHoras) public{\r\n\r\n        Datos[contador]= fDatos(contador, _latLon, _temperaturas, _fechaHoras);\r\n        emit SubidaDatos(contador, _latLon, _temperaturas, _fechaHoras);\r\n        contador++;\r\n        /*\r\n\r\n        temperaturas[contador]= Datos(latLon, _latitud, _longitud, _temperatura);\r\n        emit DatosSubidos(contador+1, block.timestamp, _latitud, _longitud, _temperatura);\r\n        contador++;*/\r\n    }\r\n    \r\n    function getTemperatura(uint256 id, uint i) public view returns(uint256){     \r\n        return Datos[id].temperaturas[i];\r\n    }\r\n\r\n    function getFechaHora(uint256 id, uint i) public view returns(uint256){     \r\n        return Datos[id].fechaHoras[i];\r\n    }\r\n\r\n}",
  "sourcePath": "C:\\Users\\Usuario\\Desktop\\WRF\\contracts\\WRFContract.sol",
  "compiler": {
    "name": "solc",
    "version": "0.8.13+commit.abaa5c0e.Emscripten.clang"
  },
  "schemaVersion": "3.4.7",
  "updatedAt": "2022-06-09T21:53:07.303Z",
  "networkType": "ethereum",
  "devdoc": {
    "kind": "dev",
    "methods": {},
    "version": 1
  },
  "userdoc": {
    "kind": "user",
    "methods": {},
    "version": 1
  }
}